{
  "_format": "hh-sol-artifact-1",
  "contractName": "NiftyITPrediction",
  "sourceName": "contracts/NiftyITPrediction.sol",
  "abi": [
    {
      "inputs": [],
      "stateMutability": "nonpayable",
      "type": "constructor"
    },
    {
      "anonymous": false,
      "inputs": [
        {
          "indexed": false,
          "internalType": "uint256",
          "name": "model1",
          "type": "uint256"
        },
        {
          "indexed": false,
          "internalType": "uint256",
          "name": "model2",
          "type": "uint256"
        },
        {
          "indexed": false,
          "internalType": "uint256",
          "name": "model3",
          "type": "uint256"
        },
        {
          "indexed": false,
          "internalType": "uint256",
          "name": "actualEvent",
          "type": "uint256"
        }
      ],
      "name": "PredictionProcessed",
      "type": "event"
    },
    {
      "anonymous": false,
      "inputs": [
        {
          "indexed": false,
          "internalType": "uint256",
          "name": "weight1",
          "type": "uint256"
        },
        {
          "indexed": false,
          "internalType": "uint256",
          "name": "weight2",
          "type": "uint256"
        },
        {
          "indexed": false,
          "internalType": "uint256",
          "name": "weight3",
          "type": "uint256"
        }
      ],
      "name": "WeightsUpdated",
      "type": "event"
    },
    {
      "inputs": [],
      "name": "getWeights",
      "outputs": [
        {
          "internalType": "uint256",
          "name": "",
          "type": "uint256"
        },
        {
          "internalType": "uint256",
          "name": "",
          "type": "uint256"
        },
        {
          "internalType": "uint256",
          "name": "",
          "type": "uint256"
        }
      ],
      "stateMutability": "view",
      "type": "function"
    },
    {
      "inputs": [],
      "name": "owner",
      "outputs": [
        {
          "internalType": "address",
          "name": "",
          "type": "address"
        }
      ],
      "stateMutability": "view",
      "type": "function"
    },
    {
      "inputs": [
        {
          "internalType": "uint256",
          "name": "model1",
          "type": "uint256"
        },
        {
          "internalType": "uint256",
          "name": "model2",
          "type": "uint256"
        },
        {
          "internalType": "uint256",
          "name": "model3",
          "type": "uint256"
        },
        {
          "internalType": "uint256",
          "name": "actualEvent",
          "type": "uint256"
        }
      ],
      "name": "processPredictions",
      "outputs": [],
      "stateMutability": "nonpayable",
      "type": "function"
    },
    {
      "inputs": [],
      "name": "resetWeights",
      "outputs": [],
      "stateMutability": "nonpayable",
      "type": "function"
    },
    {
      "inputs": [],
      "name": "weight1",
      "outputs": [
        {
          "internalType": "uint256",
          "name": "",
          "type": "uint256"
        }
      ],
      "stateMutability": "view",
      "type": "function"
    },
    {
      "inputs": [],
      "name": "weight2",
      "outputs": [
        {
          "internalType": "uint256",
          "name": "",
          "type": "uint256"
        }
      ],
      "stateMutability": "view",
      "type": "function"
    },
    {
      "inputs": [],
      "name": "weight3",
      "outputs": [
        {
          "internalType": "uint256",
          "name": "",
          "type": "uint256"
        }
      ],
      "stateMutability": "view",
      "type": "function"
    }
  ],
  "bytecode": "0x608060405260646000556064600155606460025534801561001f57600080fd5b5033600360006101000a81548173ffffffffffffffffffffffffffffffffffffffff021916908373ffffffffffffffffffffffffffffffffffffffff1602179055506107d6806100706000396000f3fe608060405234801561001057600080fd5b506004361061007d5760003560e01c80638da5cb5b1161005b5780638da5cb5b146100dc578063d32650cf146100fa578063dd53151814610118578063ec02dccd146101365761007d565b806322acb8671461008257806364901520146100a257806386f92c5b146100c0575b600080fd5b61008a610140565b60405161009993929190610501565b60405180910390f35b6100aa610158565b6040516100b79190610538565b60405180910390f35b6100da60048036038101906100d59190610584565b61015e565b005b6100e4610255565b6040516100f1919061062c565b60405180910390f35b61010261027b565b60405161010f9190610538565b60405180910390f35b610120610281565b60405161012d9190610538565b60405180910390f35b61013e610287565b005b60008060008054600154600254925092509250909192565b60025481565b600360009054906101000a900473ffffffffffffffffffffffffffffffffffffffff1673ffffffffffffffffffffffffffffffffffffffff163373ffffffffffffffffffffffffffffffffffffffff16146101ee576040517f08c379a00000000000000000000000000000000000000000000000000000000081526004016101e5906106a4565b60405180910390fd5b6101fa84826001610372565b61020683826002610372565b61021282826003610372565b7fc2df0e1031f7dbfb0bb4903059c4d9f9d6c16c8b2ad74d837036e6e561d5e1bf8484848460405161024794939291906106c4565b60405180910390a150505050565b600360009054906101000a900473ffffffffffffffffffffffffffffffffffffffff1681565b60015481565b60005481565b600360009054906101000a900473ffffffffffffffffffffffffffffffffffffffff1673ffffffffffffffffffffffffffffffffffffffff163373ffffffffffffffffffffffffffffffffffffffff1614610317576040517f08c379a000000000000000000000000000000000000000000000000000000000815260040161030e906106a4565b60405180910390fd5b6064600081905550606460018190555060646002819055507f309a0c4067b8d1d08298519982cba6674df54ebb2f55d02a84e5fc26c510be4760005460015460025460405161036893929190610501565b60405180910390a1565b8183036103f95760018160ff16036103a25760056000808282546103969190610738565b925050819055506103f4565b60028160ff16036103cc576005600160008282546103c09190610738565b925050819055506103f3565b60038160ff16036103f2576005600260008282546103ea9190610738565b925050819055505b5b5b6104a2565b60018160ff1614801561040e57506005600054115b15610431576005600080828254610425919061076c565b925050819055506104a1565b60028160ff1614801561044657506005600154115b1561046a5760056001600082825461045e919061076c565b925050819055506104a0565b60038160ff1614801561047f57506005600254115b1561049f57600560026000828254610497919061076c565b925050819055505b5b5b5b7f309a0c4067b8d1d08298519982cba6674df54ebb2f55d02a84e5fc26c510be476000546001546002546040516104db93929190610501565b60405180910390a1505050565b6000819050919050565b6104fb816104e8565b82525050565b600060608201905061051660008301866104f2565b61052360208301856104f2565b61053060408301846104f2565b949350505050565b600060208201905061054d60008301846104f2565b92915050565b600080fd5b610561816104e8565b811461056c57600080fd5b50565b60008135905061057e81610558565b92915050565b6000806000806080858703121561059e5761059d610553565b5b60006105ac8782880161056f565b94505060206105bd8782880161056f565b93505060406105ce8782880161056f565b92505060606105df8782880161056f565b91505092959194509250565b600073ffffffffffffffffffffffffffffffffffffffff82169050919050565b6000610616826105eb565b9050919050565b6106268161060b565b82525050565b6000602082019050610641600083018461061d565b92915050565b600082825260208201905092915050565b7f43616c6c6572206973206e6f7420746865206f776e6572000000000000000000600082015250565b600061068e601783610647565b915061069982610658565b602082019050919050565b600060208201905081810360008301526106bd81610681565b9050919050565b60006080820190506106d960008301876104f2565b6106e660208301866104f2565b6106f360408301856104f2565b61070060608301846104f2565b95945050505050565b7f4e487b7100000000000000000000000000000000000000000000000000000000600052601160045260246000fd5b6000610743826104e8565b915061074e836104e8565b925082820190508082111561076657610765610709565b5b92915050565b6000610777826104e8565b9150610782836104e8565b925082820390508181111561079a57610799610709565b5b9291505056fea26469706673582212207b4f15db8cb6e13cd00e0c5f1d931e7a426cf0495b4a9d9118771dac7862fc4264736f6c63430008140033",
  "linkReferences": {},
  "deployedLinkReferences": {}
}